:100000000C9463000C948B000C948B000C941A0CD1
:100010000C941A0C0C941A0C0C948B000C948B00FE
:100020000C948B000C948B000C948B000C948B0024
:100030000C948B000C948B000C948B000C948B0014
:100040000C94D00B0C948B000C949E0B0C94780B9E
:100050000C948B000C948B000C948B000C948B00F4
:100060000C948B000C948B000000000023002600F1
:10007000290000000000240027002A0000000000E2
:10008000250028002B0004040404040404040202D4
:100090000202020203030303030301020408102007
:1000A0004080010204081020010204081020000012
:1000B0000008000201000003040700000000000027
:1000C00000005B0C571111241FBECFEFD8E0DEBF3C
:1000D000CDBF25E0AAEBB2E001C01D92A630B20769
:1000E000E1F712E0A0E0B1E0ECE9F5E202C0059032
:1000F0000D92AA3BB107D9F710E0C2E6D0E004C0E8
:100100002197FE010E949111C136D107C9F70E94C3
:100110001C0E0C94C1120C940000CF92DF92EF924F
:10012000FF92CF93DF93EC016A017B01E889F989A3
:1001300082E08083C11481EED806E104F104A1F0CD
:1001400060E079E08DE390E0A70196010E946F11D5
:100150002150310941095109569547953795279501
:10016000211580E1380798F0E889F989108260E864
:1001700074E88EE190E0A70196010E946F11215072
:100180003109410951095695479537952795EC85D1
:10019000FD853083EE85FF852083188EEC89FD89EF
:1001A00086E08083EA89FB89808180618083EA8997
:1001B000FB89808188608083EA89FB8980818068EF
:1001C0008083EA89FB8980818F7D8083DF91CF9155
:1001D000FF90EF90DF90CF900895AF92BF92CF92B3
:1001E000DF92EF92FF920F931F93CF93DF936C01F7
:1001F0007B018B01040F151FEB015E01AE18BF08D8
:10020000C017D10759F06991D601ED91FC91019089
:10021000F081E02DC6010995892B79F7C501DF91A1
:10022000CF911F910F91FF90EF90DF90CF90BF90F3
:10023000AF900895FC01538D448D252F30E0842F1D
:1002400090E0821B930B541710F0CF9608950197FE
:100250000895FC01918D828D981761F0A28DAE0FEB
:10026000BF2FB11D5D968C91928D9F5F9F73928F72
:1002700090E008958FEF9FEF0895FC01918D828D9E
:10028000981731F0828DE80FF11D858D90E008956B
:100290008FEF9FEF0895FC01918D228D892F90E0C3
:1002A000805C9F4F821B91098F739927089583E586
:1002B00093E00E944B0121E0892B09F420E0822F7A
:1002C000089580E090E0892B29F00E945701811168
:1002D0000C9400000895FC01A48DA80FB92FB11D46
:1002E000A35ABF4F2C91848D90E001968F7399276C
:1002F000848FA689B7892C93A089B1898C9183704A
:1003000080648C93938D848D981306C00288F38942
:10031000E02D80818F7D80830895EF92FF920F936F
:100320001F93CF93DF93EC0181E0888F9B8D8C8DA1
:1003300098131AC0E889F989808185FF15C09FB795
:10034000F894EE89FF896083E889F9898081837058
:10035000806480839FBF81E090E0DF91CF911F9107
:100360000F91FF90EF900895F62E0B8D10E00F5F28
:100370001F4F0F731127E02E8C8D8E110CC00FB6FE
:1003800007FCFACFE889F989808185FFF5CFCE0196
:100390000E946B01F1CFEB8DEC0FFD2FF11DE35AA5
:1003A000FF4FF0829FB7F8940B8FEA89FB89808119
:1003B0008062CFCFCF93DF93EC01888D8823B9F093
:1003C000AA89BB89E889F9898C9185FD03C0808160
:1003D00086FD0DC00FB607FCF7CF8C9185FFF2CFDD
:1003E000808185FFEDCFCE010E946B01E9CFDF91C7
:1003F000CF910895833081F028F4813099F08230D4
:10040000A9F008958730A9F08830C9F08430B1F49C
:10041000809180008F7D03C0809180008F778093D2
:100420008000089584B58F7784BD089584B58F7D4D
:10043000FBCF8091B0008F778093B00008958091BA
:10044000B0008F7DF9CF1F93CF93DF93EBEBF0E0FC
:100450009491E7EAF0E0D491E3E9F0E0C491CC2391
:10046000B9F0182F992319F0892F0E94FA01EC2F67
:10047000F0E0EE0FFF1FE458FF4FA591B4918FB746
:10048000F894EC91111108C0D095DE23DC938FBF56
:10049000DF91CF911F910895DE2BF8CFCF93DF939B
:1004A00090E0FC01E656FF4F24918A579F4FFC01D4
:1004B00084918823C9F090E0880F991FFC01EE58C1
:1004C000FF4FA591B491FC01E458FF4FC591D49121
:1004D00061110DC09FB7F8948C91209582238C9365
:1004E0008881282328839FBFDF91CF9108956230B0
:1004F00051F49FB7F8943C91822F809583238C937D
:10050000E8812E2BEFCF8FB7F894EC912E2B2C9304
:100510008FBFEACF3FB7F8948091C1029091C20299
:10052000A091C302B091C40226B5A89B05C02F3F7D
:1005300019F00196A11DB11D3FBFBA2FA92F982F09
:100540008827BC01CD01620F711D811D911D42E004
:10055000660F771F881F991F4A95D1F708958F92CC
:100560009F92AF92BF92CF92DF92EF92FF924B0198
:100570005C010E948A026B017C010E948A026C1954
:100580007D098E099F09683E734081059105A8F396
:1005900021E0821A9108A108B10888EEC80E83E014
:1005A000D81EE11CF11C81149104A104B10429F7A7
:1005B000FF90EF90DF90CF90BF90AF909F908F9083
:1005C00008952FB7F8946091BD027091BE0280919A
:1005D000BF029091C0022FBF0895CF93DF93EC012B
:1005E0008A819B81009749F004960E94ED02EA817E
:1005F000FB81138612861B821A82DF91CF910895A8
:1006000026E931E0FC01318320830C94ED02CF9385
:10061000DF93EC018A819B81009741F00E940703E0
:10062000EA81FB81118610861B821A82DF91CF91AD
:100630000895472F662339F0DC01ED91FC91028C7F
:10064000F38DE02D09940895EF920F93DC01942F20
:10065000252F062F642F607F4F70ED91FC9111972D
:10066000907E903C49F00488F589E02DE72ECD017D
:1006700009950F91EF9008950688F789E02D072FCF
:10068000CD010995F6CF2CE831E0FC0131832083C0
:100690000C94000308950F931F93CF93DF93EC0105
:1006A0000E948A02088119812A813B81601B710B9B
:1006B000820B930B6C837D838E839F83DF91CF911D
:1006C0001F910F910895CF93DF93DB011896ED9161
:1006D000FC911997309701F12085318516964D913F
:1006E0005C91179721153105D1F0E9017F836E8365
:1006F00057834683B187A0871796FC93EE9316978E
:1007000019963C932E9318974115510561F0DA0123
:100710001996FC93EE931897DF91CF910895EC0111
:1007200079836883E5CFEC01FB83EA83F5CF0F93F0
:100730001F93CF938C01C42FDB0118968D919C9150
:10074000DC01ED91FC910280F381E02D0995982F59
:10075000D8015696ED91FC91309729F08C2FCF91CE
:100760001F910F910994CF911F910F910895EF92CE
:10077000FF920F931F93CF93DF93EC01DB01189649
:100780008D919C91DC01ED91FC910190F081E02D27
:100790000995062FF72EE82E192FEC89FD89309741
:1007A00019F00995811135C0C091C902D091CA02D2
:1007B000209779F18E8181133DC0E881F98102840F
:1007C000F385E02D402F5F2D6E2D712FCE01099501
:1007D000882381F1EC81FD813097D9F08481958166
:1007E0002A813B810097E1F0DC011396DC93CE93E4
:1007F000129733832283D583C483FB83EA839D834B
:100800008C832115310589F0D9011596FC93EE935F
:100810001497DF91CF911F910F91FF90EF90089562
:10082000D093CA02C093C902E4CFF093CC02E09304
:10083000CB02EFCF0A80DB81C02DBACFEF92FF92BF
:100840000F931F93CF93DF9300D0CDB7DEB78C010A
:100850007B01DC01ED91FC910484F585E02D099587
:100860009A838983D801ED91FC910684F785E02D68
:10087000BE016F5F7F4FC8010995882361F0D801E1
:10088000ED91FC910284F385E02DAE014F5F5F4F47
:10089000B701C80109950F900F90DF91CF911F917B
:1008A0000F91FF90EF9008950F931F93CF93DF93D5
:1008B00000D000D01F92CDB7DEB7DB011896ED91C6
:1008C000FC916281738134812581462F407F498369
:1008D000462F4F704A837B833C832D83DC015296E5
:1008E000ED91FC91309729F0832F922F099581117A
:1008F0005AC08981803B09F060C08B81893731F50E
:100900000091D9021091DA020115110561F0D801A8
:10091000ED91FC910680F781E02DC8010995F80161
:1009200006811781F1CF0091D1021091D2020115F9
:100930001105C9F1D801ED91FC910680F781E02DF8
:10094000C8010995F80106811781F1CF0091D902FC
:100950001091DA028B37B9F40091D5021091D602CA
:100960000115110501F1D801ED91FC910680F78187
:10097000E02DC8010995F80106811781F1CFD80152
:1009800016960D911C910115110569F0BE016F5F5E
:100990007F4FC8010E941E04882389F3B80189EDA6
:1009A00092E00E9463030F900F900F900F900F90B2
:1009B000DF91CF911F910F910895982F9F7E9038CE
:1009C000C9F40091D5021091D6020115110559F311
:1009D000BE016F5F7F4FC8010E941E04882331F063
:1009E000B80185ED92E00E946303DDCFF801068136
:1009F0001781EBCF803DD1F40091D1021091D2024A
:100A00000115110581F2BE016F5F7F4FC8010E9481
:100A10001E04882331F0B80181ED92E00E94630347
:100A2000C2CFD80116960D911C91EACF803C09F0F7
:100A3000BACF0091CD021091CE020115110509F433
:100A4000B2CFBE016F5F7F4FC8010E941E04882392
:100A500031F0B8018DEC92E00E946303A4CFF8015D
:100A600006811781EACF61E08DE00E944E0281E0AD
:100A70000E94230262E370E080E090E00E94AF02F7
:100A800080E00E94230262E370E080E090E00E9438
:100A9000AF0281E00E94230262E370E080E090E018
:100AA0000E94AF0280E00E94230262E573E080E0D2
:100AB00090E00E94AF02DBCFCF93DF93462F4695A5
:100AC00046954695A42FB0E0677021E001C0220F43
:100AD0006A95EAF7423010F00E943305FC01EA0FF4
:100AE000FB1F3089322359F4EC01EC85FD858081B0
:100AF0009181009779F781E0DF91CF91089580E0AF
:100B0000FBCFCF92DF92EF92FF920F931F93CF9381
:100B1000DF93EC018C85811108C0E881F981048C98
:100B2000F58DE02DCE0109958C871C85112309F4E4
:100B300088C0A885B985113039F1ED91FC911197E4
:100B4000123009F453C00280F381E02DCD010995E4
:100B5000AE81BF81109751F0ED91FC911197028801
:100B6000F389E02D612F782FCD0109958A859B852A
:100B7000009799F2DC01ED91FC910480F581E02D64
:100B8000412FBE010995C9CF1296CC9012971396AA
:100B9000DC9013971496EC9014971596FC900E81A8
:100BA0001F810115110539F06F2DC8010E945C05E8
:100BB000882309F446C00115110551F0D801ED91C3
:100BC000FC910684F785E02DA601B701C8010995BF
:100BD0008A859B85009709F4A0CFDC01ED91FC91FB
:100BE0000190F081E02DBE01099597CF0190F08131
:100BF000E02DCD0109956B017C010E811F8101154E
:100C0000110531F06F2DC8010E945C058823C9F0E1
:100C10000115110551F0D801ED91FC910088F18981
:100C2000E02DA601B701C80109958A859B8500972B
:100C300009F473CFDC01ED91FC910280F381E02D8A
:100C4000D2CFDF91CF911F910F91FF90EF90DF9066
:100C5000CF900895CF93DF93A42F352F272F6623AE
:100C600089F0623010F40E943305462F50E0EC0109
:100C7000E881F981008CF18DE02D6A2F732FDF91CF
:100C8000CF910994DF91CF910895E091C502F09141
:100C9000C602309771F0208531858217930748F09E
:100CA000228533858217930730F00280F381E02D8F
:100CB000F0CF0E943305CF0108951F93CF93DF93A8
:100CC000811520E89207F1F08A31910528F4DF912F
:100CD000CF911F910C944E02162FEC010E944506F5
:100CE000DC0118962D913C911997BE01621B730B84
:100CF000ED91FC910480F581E02D412FDF91CF91A2
:100D00001F910994DF91CF911F910895EF920F9356
:100D10001F93CF93DF93EC010E811F81011580E8B3
:100D2000180709F47BC00A31110508F065C0802F4F
:100D30000E3010F082EF800F8770806480937C000B
:100D400080917A00806480937A0080917A0086FD99
:100D5000FCCF2091780080917900982F822F9C0100
:100D600074E0220F331F7A95E1F7E6E096958795B8
:100D7000EA95E1F7282B392B8A859B85280F391FA7
:100D8000C90102969695879596958795281B390BEC
:100D90003B872A87E885F985309709F009954C85C6
:100DA0005D859A013695322F222737952795206445
:100DB0004115510551F0B9016F5771094F3F51402D
:100DC00008F045C08617970728F021583F4F28178D
:100DD0003907B8F58C01000F012F001F110B119579
:100DE0001D870C872E854F8580915103909152036A
:100DF0000097B9F40E943305C8010E944506DC0142
:100E000018962D913C911997B801621B730BED91C7
:100E1000FC910484F585E02D0995A1CF90E080E058
:100E20009ECF20FF0EC0E42EE2943FE0E322269501
:100E30004F70DC01ED91FC910488F589E02D60EBA9
:100E40000995DF91CF911F910F91EF90089586172B
:100E5000970708F4BFCFF5CF08950496089502963A
:100E600008950596089502960895039608950296AA
:100E70000895FC01E756FF4F4081518162817381E3
:100E800089569F4FFC01808191810C948D00EF92D7
:100E90000F93CF93DF93DC01322F50E0E62FF0E089
:100EA000E430F10510F00E94330544305105D8F7C5
:100EB000EE0FFF1FEE0FFF1FEA0FFB1FE40FF51FE2
:100EC000268D9F964C919F97E42EE2949FE0E92215
:100ED0004F7080915103909152032F77EC01E8817C
:100EE000F98131110EC00097F1F20488F589E02DE7
:100EF000D0960C9160E90995DF91CF910F91EF9019
:100F00000895009781F20488F589E02D0FE760E8E5
:100F1000F2CF06970C9447072F923F924F925F9221
:100F20006F927F928F929F92AF92BF92CF92DF92F9
:100F3000EF92FF920F931F93CF93DF93CDB7DEB75E
:100F400028970FB6F894DEBF0FBECDBF8C010E946C
:100F5000E1024B015C01F80180859185A285B38592
:100F6000A5019401281B390B4A0B5B0BDA01C9015F
:100F70004997A105B10508F4A8C018013EE0230E69
:100F8000311CD12CC12CA8014A5F5F4F5E834D8379
:100F900061E0D1018D919D911D010E945D06F801D6
:100FA0007696FC83EB833601512C4C2CAB81BC81B3
:100FB000ED91FD91BC83AB83FA83E983E11520E8D1
:100FC000F20709F4B0C0EA31F10508F097C0E25524
:100FD000FF4F8491E981FA81E656FF4FF4904981F1
:100FE0005A814A575F4FFA01F491F983FF2309F4BC
:100FF0009AC081110E94FA012981E22FF0E0EE0FE0
:10100000FF1FE859FF4FA591B491EC91FE2291E0AA
:1010100080E009F490E0E92EF82E21E0E114F104DB
:1010200009F420E0862D8770E1E0F0E002C0EE0FC9
:10103000FF1F8A95E2F7FA83E983A30183E05595C0
:1010400047958A95E1F7400F511F58874F83DA0182
:101050001C968C918E2391E009F490E02917F9F009
:10106000D8011696ED91FC910480F581E02D452D77
:10107000642D8D819E810995EF2809F457C0EF8179
:10108000F8858485F9818F2BAF81B8851C968C9368
:10109000D80118968D929D92AD92BC921B97B4E0A8
:1010A0006B0E711C5394E4E05E1280CF60E0F1019E
:1010B0003297808191810E945D06FFEFCF1ADF0A8F
:1010C00024E0C216D10409F063CF28960FB6F89435
:1010D000DEBF0FBECDBFDF91CF911F910F91FF906B
:1010E000EF90DF90CF90BF90AF909F908F907F90C8
:1010F0006F905F904F903F902F90089589819A81D3
:101100000E944506DC0118962D913C911997698142
:101110007A81621B730BED91FC910084F185E02DC7
:1011200009957C017ACFF12CE12C77CF89819A81C6
:1011300080959095EF81F885948589238487A8CF41
:10114000CF92DF92EF92FF920F931F93CF93DF9393
:10115000EC017C0186E1E80EF11C6E01EEE1CE0EA1
:10116000D11C8701C016D10641F062E0F8018191DF
:1011700091918F010E945D06F5CF2E96EC16FD062B
:1011800031F060E0899199910E945D06F7CFDF917F
:10119000CF911F910F91FF90EF90DF90CF90089526
:1011A000089508950895CF93DF93FC0180EC91E0BA
:1011B00091838083309781F080914D0390914E030D
:1011C00022813381A481B581E817F90741F0211507
:1011D000310529F4109729F4DF91CF9108951097E4
:1011E00021F013963C932E93129720914F03309148
:1011F0005003E217F30721F4B0935003A0934F0379
:10120000C281D381209711F0BD83AC83E817F90721
:1012100019F7D0934E03C0934D03DECF2CEC31E091
:10122000FC01318320830C94D30806970C940E099B
:1012300024EE31E0FC013183208322EF31E037835B
:1012400026830C940E0906970C941809CF93DF930C
:10125000EC0184E092E09983888384E292E09D83AC
:101260008C838091510390915203C817D90721F4C0
:10127000109252031092510388E391E0998388837E
:101280008AE491E09D838C83CE0104960E944303FF
:1012900086E291E099838883CE01DF91CF910C940F
:1012A000070324E531E0FC013183208326E731E0A8
:1012B000358324830C94260904970C9451092EE25B
:1012C00032E0FC013183208320E532E03583248342
:1012D0000C94510904970C945F092AE532E0FC0153
:1012E000318320832CE732E0358324830C945F091B
:1012F00004970C946D0904970C94260989569F4F06
:10130000DC018D919C91DC01ED91FC910190F081CB
:10131000E02D099489569F4FDC018D919C91DC0151
:10132000ED91FC910280F381E02D09941F93CF93FE
:10133000DF93122FEC01C956DF4F88819981642B0E
:10134000DC01ED91FC910190F081E02D09958881FF
:101350009981DC01ED91FC910190F081E02D612FEC
:10136000DF91CF911F9109940F931F93CF93DF9338
:10137000122FEC01C956DF4F88819981642BDC0163
:10138000ED91FC910190F081E02D09958881998182
:10139000DC01ED91FC910190F081E02D612F099528
:1013A00088819981DC01ED91FC910190F081E02D23
:1013B000602FDF91CF911F910F9109947F928F92AF
:1013C0009F92AF92BF92CF92DF92EF92FF920F93D4
:1013D0001F93CF93DF93EC016C0187E9C80ED11CFA
:1013E0005E01A5E9AA0EB11C772473947E01B3E9CE
:1013F000EB0EF11C88248394912C8E010A561F4F0A
:10140000F60180819181DC01ED91FC910084F185F0
:10141000E02D0995181619060CF06FC0F6018081B1
:101420009181DC01ED91FC910284F385E02D099519
:10143000282F9F85903F49F4F5013081311105C077
:1014400070829B8BD7018D929C9287FF2BC0883F27
:10145000D0F48F87F8011082903F91F6FE01ED568F
:10146000FF4F808191818038910548F4DE01A80FFB
:10147000B91F27EF53962C93019691838083CB5607
:10148000DF4F188222E0822FDF91CF911F910F91C1
:10149000FF90EF90DF90CF90BF90AF909F908F9094
:1014A0007F900895992309F4ABCFD8012C91222382
:1014B00021F0898B1C9221E0E6CF903C10F0903E09
:1014C00021F4888BF80170829BCF903E10F4888BBA
:1014D000F2CF903F09F094CFD7012D913C91119715
:1014E0002038310508F08CCFFE01E20FF31F838B0B
:1014F0002F5F3F4F2D933C9383CF20E0C4CFFC015F
:10150000EA57FF4F0696BC01808190E008952AE1DA
:1015100031E0FC01318320830C94D30820E831E0D2
:10152000FC01318320830C94870AFC017387628756
:10153000089580E0089508950895FB01019000202A
:10154000E9F73197AF01461B570BDC01ED91FC9198
:101550000280F381E02D09948F929F92AF92BF9207
:10156000EF92FF920F931F93CF93DF93CDB7DEB728
:10157000A1970FB6F894DEBF0FBECDBF7C01FA0174
:10158000CB0119A2223008F42AE08E010F5D1F4F13
:10159000822E912CB12CA12CBF01A50194010E9497
:1015A0006F11F901CA016A300CF5605DD8016E93C4
:1015B0008D01232B242B252B79F790E080E01097C9
:1015C00021F0BD01C7010E949D0AA1960FB6F894B3
:1015D000DEBF0FBECDBFDF91CF911F910F91FF9066
:1015E000EF90BF90AF909F908F900895695CDECF91
:1015F0000E94BC12CF93DF93EC010E946D09CE01D3
:10160000DF91CF910C94331204970C94FA0ACF9384
:10161000DF93EC010E940003CE01DF91CF910C9487
:101620003312CF93DF93EC010E944303CE01DF918D
:10163000CF910C9433120C943312CF93DF93EC01BF
:101640000E948E0ACE01DF91CF910C9433120C943C
:1016500033120C9433120C943312CF93DF93EC01BA
:101660000E941809CE01DF91CF910C943312069796
:101670000C942D0BCF93DF93EC010E940E09CE0149
:10168000DF91CF910C94331206970C943A0BCF93C1
:10169000DF93EC010E945F09CE01DF91CF910C94A2
:1016A000331204970C94470BCF93DF93EC010E9405
:1016B0005109CE01DF91CF910C94331204970C9411
:1016C000540BCF93DF93EC010E942609CE01DF91EA
:1016D000CF910C94331204970C94610BCF93DF934A
:1016E000EC010E94870ACE01DF91CF910C94331256
:1016F0001F920F920FB60F9211242F933F934F9387
:101700005F936F937F938F939F93AF93BF93EF9369
:10171000FF9383E593E00E946B01FF91EF91BF91EE
:10172000AF919F918F917F916F915F914F913F9179
:101730002F910F900FBE0F901F9018951F920F9230
:101740000FB60F9211242F938F939F93EF93FF93D4
:10175000E0916303F09164038081E0916903F0916B
:101760006A0382FD1BC0908180916C038F5F8F7331
:1017700020916D03821741F0E0916C03F0E0ED5A87
:10178000FC4F958F80936C03FF91EF919F918F9108
:101790002F910F900FBE0F901F9018958081F4CF5E
:1017A0001F920F920FB60F9211242F933F938F9396
:1017B0009F93AF93BF938091BD029091BE02A09181
:1017C000BF02B091C0023091BC0223E0230F2D373D
:1017D00058F50196A11DB11D2093BC028093BD0256
:1017E0009093BE02A093BF02B093C0028091C10249
:1017F0009091C202A091C302B091C4020196A11DB2
:10180000B11D8093C1029093C202A093C302B09312
:10181000C402BF91AF919F918F913F912F910F90F3
:101820000FBE0F901F90189526E8230F0296A11D5A
:10183000B11DD2CF1F920F920FB60F9211240F90AD
:101840000FBE0F901F901895FC0113821282158213
:10185000148280EC91E09183808380914D0390917C
:101860004E03892B21F4F0934E03E0934D03A09196
:101870004F03B0915003B583A483109721F01396C2
:10188000FC93EE931297F0935003E0934F0313826F
:1018900012827783668311861086138612861586D8
:1018A0001486DA018D919C919787868780E891E074
:1018B000918380830895CF93DF93CDB7DEB7609790
:1018C0000FB6F894DEBF0FBECDBF10925603109234
:1018D000550388EE93E0A0E0B0E080935703909327
:1018E0005803A0935903B0935A0320EA31E0309390
:1018F00054032093530325EC30E03093600320938E
:101900005F0324EC30E0309362032093610320EC0A
:1019100030E0309364032093630321EC30E0309394
:1019200066032093650322EC30E030936803209334
:10193000670326EC30E030936A032093690310922A
:101940006C0310926D0310926E0310926F0310924D
:10195000EB021092EC021092ED021092EE02109245
:10196000EF021092F0021092F1021092F202109225
:10197000F3021092F4021092F5021092F602109205
:10198000F7021092F8021092F9021092FA022091D6
:101990004303211141C022EB31E030932C0320930B
:1019A0002B0380932D0390932E03A0932F03B093CA
:1019B00030031092310310923203109233031092CD
:1019C00034038DE293E00E944B038AE191E4A0E0AE
:1019D000B0E08093350390933603A0933703B09320
:1019E00038031092390310923A0310923B0310927D
:1019F0003C0385E393E00E944B0310923E03109258
:101A00003D031092400310923F0310924203109244
:101A1000410381E0809343038BE293E090934C0376
:101A200080934B03109268041092670410926C0428
:101A300010926B0485E694E09093520380935103D7
:101A400082E794E090936E0480936D04109270048A
:101A500010926F0410927104109274041092750425
:101A600010927604109277048CEF91E090937304B7
:101A7000809372041092F9041092F8041092FA0400
:101A80001092FB0483E593E09093FD048093FC04A3
:101A900082E19AE7A0E0B0E08093FE049093FF0417
:101AA000A0930005B09301058AE592E09093660447
:101AB000809365048CE792E090936A0480936904B4
:101AC0008FE0898381E08A839E01275F3F4FAE01CB
:101AD0004F5F5F4F6EE070E084E594E00E94240C5D
:101AE0008FE0898382E08A839E01275F3F4FAE01AA
:101AF0004F5F5F4F6FE070E083E494E00E94240C3E
:101B00008FE0898383E08A839E01275F3F4FAE0188
:101B10004F5F5F4F60E170E082E394E00E94240C2D
:101B20008FE0898384E08A839E01275F3F4FAE0167
:101B30004F5F5F4F61E170E081E294E00E94240C0E
:101B400088E0E6E0F1E0DE01199601900D928A95B9
:101B5000E1F788E0EEE0F1E0DE01119601900D92F0
:101B60008A95E1F780914D0390914E03892B31F4D2
:101B700080EF93E090934E0380934D03E0914F03E9
:101B8000F0915003F093F503E093F403309721F0C4
:101B900080EF93E09383828380EF93E090935003F0
:101BA00080934F031092F3031092F2031092F80304
:101BB0001092F9031092FA031092FB0388E0FE01E1
:101BC0003996AEEFB3E001900D928A95E1F788E087
:101BD000FE013196A6E0B4E001900D928A95E1F7FE
:101BE0008FEF9FEF9093FD038093FC0380E1E2E889
:101BF000F2E0AEE0B4E001900D928A95E1F781E069
:101C000080931E0410921F048FE78093200484EEBB
:101C100091E09093F1038093F00382EF91E0909331
:101C2000F7038093F60360960FB6F894DEBF0FBEFD
:101C3000CDBFDF91CF910895789484B5826084BD43
:101C400084B5816084BD85B5826085BD85B58160C0
:101C500085BD80916E00816080936E00109281003E
:101C600080918100826080938100809181008160F9
:101C700080938100809180008160809380008091BA
:101C8000B10084608093B1008091B0008160809346
:101C9000B00080917A00846080937A0080917A000D
:101CA000826080937A0080917A00816080937A00CC
:101CB00080917A00806880937A001092C10010921F
:101CC0002703109228031092290310922A031092DE
:101CD000E7021092E8021092E9021092EA020E94D2
:101CE000E1024B015C012B013C0188EB480E8BE0CB
:101CF000581E611C711C0E94E102681579058A0555
:101D00009B0528F04616570668067906A0F768EE88
:101D100073E080E090E00E94AF0240E052EC61E0AE
:101D200070E083E593E00E948D000E94E1026093E1
:101D3000E7027093E8028093E9029093EA0262E975
:101D400072E083E593E00E949D0A0E94E1024B014C
:101D50005C012B013C01AAE04A0E511C611C711C64
:101D60000E94E102681579058A059B0528F0461650
:101D7000570668067906A0F781E08093FB02009180
:101D80004B0310914C03C091C502D091C60220971D
:101D900059F0E881F9810684F785E02DCE01099597
:101DA0000A80DB81C02DF3CF8091510390915203C3
:101DB000009711F40E943305DC01ED91FC9106843B
:101DC000F785E02D0995809151039091520300977A
:101DD00089F3DC01ED91FC910288F389E02DB801D3
:101DE0000995C091DD02D091DE02209759F0E8817B
:101DF000F9810484F585E02DCE0109950E80DF81FF
:101E0000C02DF3CFC091D902D091DA02209759F0BA
:101E1000E881F9810480F581E02DCE0109950E80DD
:101E2000DF81C02DF3CFC091CD02D091CE0220979B
:101E300059F0E881F9810480F581E02DCE01099502
:101E40000E80DF81C02DF3CFC091D102D091D2029C
:101E5000209759F0E881F9810480F581E02DCE01C9
:101E600009950E80DF81C02DF3CFC091D502D091AE
:101E7000D602209759F0E881F9810480F581E02DA0
:101E8000CE0109950E80DF81C02DF3CFC091C9022C
:101E9000D091CA02209759F0E881F9810480F58138
:101EA000E02DCE0109950A80DB81C02DF3CFC091D2
:101EB0004D03D0914E03209759F0E881F9810480B9
:101EC000F581E02DCE0109950A80DB81C02DF3CF8D
:101ED000C80102960E944B03C8010A960E944B0358
:101EE00080E0282E80E0382E94EF892E9924939458
:101EF000A12CB12C0E94E102672B682B692B09F4FD
:101F0000F7C00E94E1020091E1021091E2022091EB
:101F1000E3023091E402601771078207930708F427
:101F200006C10091E1021091E2022091E30230919A
:101F3000E4026B017C01C01AD10AE20AF30A97019C
:101F400086010A3F11052105310508F4D9C06093C7
:101F5000E1027093E2028093E3029093E4028092A4
:101F6000F3029092F402A092F502B092F60210925F
:101F7000F7021092F8021092F9021092FA02809180
:101F8000EB029091EC02A091ED02B091EE028093F1
:101F9000EF029093F002A093F102B093F2020E943C
:101FA000E1026093EB027093EC028093ED02909358
:101FB000EE020E94E1026093E7027093E8028093D0
:101FC000E9029093EA020E94E1022B013C0163EADC
:101FD00072E083E593E00E949D0A2AE041E050E030
:101FE00060E070E083E593E00E94AC0A6AEA72E088
:101FF00083E593E00E949D0A2AE0B301A20183E5F4
:1020000093E00E94AC0A6CEA72E083E593E00E94E0
:102010009D0A8091EB029091EC02A091ED02B091AB
:10202000EE02B301A201481B590B6A0B7B0B2AE09D
:1020300083E593E00E94AC0A6CEA72E083E593E0EA
:102040000E949D0A4091EB025091EC026091ED02DA
:102050007091EE028091EF029091F002A091F10256
:10206000B091F202481B590B6A0B7B0B2AE083E507
:1020700093E00E94AC0A6EEA72E083E593E00E946E
:102080009D0A0E94E102AB01BC012AE083E593E0D6
:102090000E94AC0A60EB72E083E593E00E949D0A27
:1020A00067EB72E083E593E00E949D0A0E94E102E3
:1020B0006B017C012B013C0185E0480E511C611C29
:1020C000711C0E94E1026C157D058E059F0528F0AC
:1020D0004616570668067906A0F70E94E10260934B
:1020E000EB027093EC028093ED029093EE0208C035
:1020F0000E94E102623071058105910508F001CF6F
:10210000C0914B03D0914C0300914D0310914E03AD
:1021100001151105A9F0D801ED91FC910680F78118
:10212000E02DC8010995F80102811381F1CF609378
:10213000E1027093E2028093E3029093E402F1CE15
:102140000E948A024E805F80688479840A811B81A4
:102150002C813D81AB01BC01441955096609770901
:10216000401751076207730750F0D301C201800F77
:10217000911FA21FB31F8E839F83A887B987809169
:10218000510390915203009709F414CEDC01ED91B4
:10219000FC910088F189E02D09950091D9021091F8
:1021A000DA020115110561F0D801ED91FC9100846E
:1021B000F185E02DC8010995F80106811781F1CF5D
:1021C0000091D5021091D6020115110561F0D801D8
:1021D000ED91FC910084F185E02DC8010995F8018D
:1021E00006811781F1CF0091D1021091D202011521
:1021F000110561F0D801ED91FC910084F185E02D8D
:10220000C8010995F80106811781F1CF0091CD022F
:102210001091CE020115110561F0D801ED91FC91EC
:102220000084F185E02DC8010995F8010681178128
:10223000F1CF0091C9021091CA020115110561F098
:10224000D801ED91FC910084F185E02DC80109953C
:10225000F80102811381F1CF0E948A024E845F84CB
:10226000688879880A851B852C853D85AB01BC0172
:102270004419550966097709401751076207730722
:1022800050F0D301C201800F911FA21FB31F8E8790
:102290009F87A88BB98B2114310409F42BCE0E949F
:1022A0005701882309F426CE0E94000023CE80EF38
:1022B00093E00E94180981E294E00E948E0A82E372
:1022C00094E00E948E0A83E494E00E948E0A84E5E2
:1022D00094E00E948E0A85E694E00C946D09A1E2D8
:1022E0001A2EAA1BBB1BFD010DC0AA1FBB1FEE1F90
:1022F000FF1FA217B307E407F50720F0A21BB30BDB
:10230000E40BF50B661F771F881F991F1A9469F756
:1023100060957095809590959B01AC01BD01CF01B2
:102320000895EE0FFF1F0590F491E02D09940F938F
:102330001F93CF93DF938230910510F482E090E0F9
:10234000E0910405F091050530E020E0B0E0A0E068
:10235000309799F42115310509F44AC0281B390B2F
:1023600024303105D8F58A819B816115710589F189
:10237000FB0193838283FE0111C040815181028160
:10238000138148175907E0F04817590799F4109737
:1023900061F012960C93129713961C933296CF010C
:1023A000DF91CF911F910F91089500930405109331
:1023B0000505F4CF2115310551F04217530738F0C8
:1023C000A901DB019A01BD01DF01F801C1CFEF01D5
:1023D000F9CF9093050580930405CDCFFE01E20F60
:1023E000F31F819391932250310939832883D7CFEA
:1023F0002091020530910305232B41F42091020125
:1024000030910301309303052093020520910001D0
:10241000309101012115310541F42DB73EB74091AE
:10242000040150910501241B350BE0910205F09148
:102430000305E217F307A0F42E1B3F0B28173907FB
:1024400078F0AC014E5F5F4F2417350748F04E0F10
:102450005F1F5093030540930205819391939FCF93
:10246000F0E0E0E09CCFCF93DF930097E9F0FC0130
:10247000329713821282A0910405B0910505ED01F7
:1024800030E020E01097A1F420813181820F931F6A
:1024900020910205309103052817390709F061C022
:1024A000F0930305E0930205DF91CF910895EA01CF
:1024B000CE17DF07E8F54A815B819E014115510582
:1024C000B1F7E901FB83EA8349915991C40FD51F04
:1024D000EC17FD0761F4808191810296840F951FAE
:1024E000E90199838883828193819B838A83F0E0C9
:1024F000E0E012968D919C9113970097B9F52D917C
:102500003C911197CD010296820F931F20910205F5
:10251000309103052817390739F6309751F5109295
:10252000050510920405B0930305A0930205BCCFE6
:10253000D383C28340815181840F951FC817D90767
:1025400061F44E5F5F4F88819981480F591F518315
:1025500040838A819B81938382832115310509F011
:10256000B0CFF0930505E09304059ECFFD01DC019B
:10257000C0CF13821282D7CF81E090E0F8940C9400
:10258000C11210E0C2E6D0E004C0FE010E94911129
:0C2590002196C336D107C9F7F894FFCF9D
:10259C000000060580000200030004000500060090
:1025AC0007000800090000000000870A6E0B2C07CA
:1025BC00860600000000F80AF80AF80A000000007D
:1025CC009C0A9B0A00000000F80AF80AF80A0000AE
:1025DC0000009C0A9B0AFCFF0000000000009B0A04
:1025EC000000000024032A0619035109540B9C0A0D
:1025FC009B0A39078105950AB40996098A097E094F
:10260C00DE09FCFF00005C095E0B9B0A0000000069
:10261C008E0A1D0B2C078606000000004303110BCD
:10262C009B0A000000000003070B9B0A000000003F
:10263C008D01ED001A01DA014B0129013D01000069
:10264C0000005404B70397034A031B0B000000005F
:10265C0000000000F80AF80A000000000E093A0B0E
:10266C00A0088C074707FAFF00001509440B8907DF
:10267C000000000018092D0BA0088C074707FAFF73
:10268C0000002309370B8907000000007F0A990A14
:10269C000000000024032A061903000000009C0A15
:1026AC009B0A2C07F80AF80AF80AF80AF80AF80A3A
:1026BC00FCFF0000000000009B0A00000000240347
:1026CC002A0619035F09470B9C0A9B0A39078105E7
:1026DC00950AB40996098A097E09DE09FCFF0000F7
:1026EC006A09510B9B0A0000000024032A061903F7
:1026FC006D09FA0A9C0A9B0A39078105950AB409E7
:10270C0096098A097E09DE09FCFF00007809040B92
:10271C009B0A303132332C2D2E2F28292A2B24259D
:10272C002627564D4450565F317C315F564D4450F0
:10273C00560A00564D4450455F003A323A007C0030
:0A274C005F564D445045000D0A0091
:00000001FF
